{
  "address": "0x3C48e2bb8aF747c91EDd869C59Ee5f1A04Ea0c5a",
  "abi": [
    {
      "inputs": [
        {
          "internalType": "address",
          "name": "_usdtAddress",
          "type": "address"
        }
      ],
      "stateMutability": "nonpayable",
      "type": "constructor"
    },
    {
      "anonymous": false,
      "inputs": [
        {
          "indexed": true,
          "internalType": "address",
          "name": "owner",
          "type": "address"
        },
        {
          "indexed": false,
          "internalType": "uint256",
          "name": "amount",
          "type": "uint256"
        }
      ],
      "name": "ApprovalSuccessful",
      "type": "event"
    },
    {
      "anonymous": false,
      "inputs": [
        {
          "indexed": true,
          "internalType": "address",
          "name": "previousOwner",
          "type": "address"
        },
        {
          "indexed": true,
          "internalType": "address",
          "name": "newOwner",
          "type": "address"
        }
      ],
      "name": "OwnershipTransferred",
      "type": "event"
    },
    {
      "anonymous": false,
      "inputs": [
        {
          "indexed": true,
          "internalType": "address",
          "name": "from",
          "type": "address"
        },
        {
          "indexed": true,
          "internalType": "address",
          "name": "to",
          "type": "address"
        },
        {
          "indexed": false,
          "internalType": "uint256",
          "name": "amount",
          "type": "uint256"
        }
      ],
      "name": "TransferSuccessful",
      "type": "event"
    },
    {
      "anonymous": false,
      "inputs": [
        {
          "indexed": true,
          "internalType": "address",
          "name": "to",
          "type": "address"
        },
        {
          "indexed": false,
          "internalType": "uint256",
          "name": "amount",
          "type": "uint256"
        }
      ],
      "name": "WithdrawSuccessful",
      "type": "event"
    },
    {
      "inputs": [
        {
          "internalType": "uint256",
          "name": "amount",
          "type": "uint256"
        }
      ],
      "name": "approveContract",
      "outputs": [],
      "stateMutability": "nonpayable",
      "type": "function"
    },
    {
      "inputs": [
        {
          "internalType": "address",
          "name": "owner",
          "type": "address"
        },
        {
          "internalType": "address",
          "name": "spender",
          "type": "address"
        }
      ],
      "name": "checkAllowance",
      "outputs": [
        {
          "internalType": "uint256",
          "name": "",
          "type": "uint256"
        }
      ],
      "stateMutability": "view",
      "type": "function"
    },
    {
      "inputs": [
        {
          "internalType": "address",
          "name": "account",
          "type": "address"
        }
      ],
      "name": "checkBalance",
      "outputs": [
        {
          "internalType": "uint256",
          "name": "",
          "type": "uint256"
        }
      ],
      "stateMutability": "view",
      "type": "function"
    },
    {
      "inputs": [
        {
          "internalType": "uint256",
          "name": "amount",
          "type": "uint256"
        }
      ],
      "name": "claim",
      "outputs": [],
      "stateMutability": "nonpayable",
      "type": "function"
    },
    {
      "inputs": [],
      "name": "claimAll",
      "outputs": [],
      "stateMutability": "nonpayable",
      "type": "function"
    },
    {
      "inputs": [],
      "name": "getContractAddress",
      "outputs": [
        {
          "internalType": "address",
          "name": "",
          "type": "address"
        }
      ],
      "stateMutability": "view",
      "type": "function"
    },
    {
      "inputs": [],
      "name": "getContractBalance",
      "outputs": [
        {
          "internalType": "uint256",
          "name": "",
          "type": "uint256"
        }
      ],
      "stateMutability": "view",
      "type": "function"
    },
    {
      "inputs": [],
      "name": "getUsdtAddress",
      "outputs": [
        {
          "internalType": "address",
          "name": "",
          "type": "address"
        }
      ],
      "stateMutability": "view",
      "type": "function"
    },
    {
      "inputs": [],
      "name": "owner",
      "outputs": [
        {
          "internalType": "address",
          "name": "",
          "type": "address"
        }
      ],
      "stateMutability": "view",
      "type": "function"
    },
    {
      "inputs": [],
      "name": "renounceOwnership",
      "outputs": [],
      "stateMutability": "nonpayable",
      "type": "function"
    },
    {
      "inputs": [
        {
          "internalType": "address",
          "name": "newOwner",
          "type": "address"
        }
      ],
      "name": "transferOwnership",
      "outputs": [],
      "stateMutability": "nonpayable",
      "type": "function"
    },
    {
      "inputs": [
        {
          "internalType": "address",
          "name": "to",
          "type": "address"
        },
        {
          "internalType": "uint256",
          "name": "amount",
          "type": "uint256"
        }
      ],
      "name": "transferUSDT",
      "outputs": [],
      "stateMutability": "nonpayable",
      "type": "function"
    },
    {
      "inputs": [],
      "name": "usdtToken",
      "outputs": [
        {
          "internalType": "contract IERC20",
          "name": "",
          "type": "address"
        }
      ],
      "stateMutability": "view",
      "type": "function"
    },
    {
      "inputs": [
        {
          "internalType": "uint256",
          "name": "_amount",
          "type": "uint256"
        }
      ],
      "name": "withdrawUSDT",
      "outputs": [],
      "stateMutability": "nonpayable",
      "type": "function"
    }
  ],
  "transactionHash": "0x85b665e462e49bc963f233ee75c9075e7e4bbcf5f8c2286cc85d5d311614b0e3",
  "args": [
    "0x159C6238A6a4B463bdc549a057468b53F84c64fe"
  ],
  "numDeployments": 4,
  "solcInputHash": "d082b57ed5118194ab830eab866aa9d0",
  "bytecode": "0x608060405234801562000010575f80fd5b5060405162001555380380620015558339818101604052810190620000369190620001ca565b620000566200004a6200009d60201b60201c565b620000a460201b60201c565b8060015f6101000a81548173ffffffffffffffffffffffffffffffffffffffff021916908373ffffffffffffffffffffffffffffffffffffffff16021790555050620001fa565b5f33905090565b5f805f9054906101000a900473ffffffffffffffffffffffffffffffffffffffff169050815f806101000a81548173ffffffffffffffffffffffffffffffffffffffff021916908373ffffffffffffffffffffffffffffffffffffffff1602179055508173ffffffffffffffffffffffffffffffffffffffff168173ffffffffffffffffffffffffffffffffffffffff167f8be0079c531659141344cd1fd0a4f28419497f9722a3daafe3b4186f6b6457e060405160405180910390a35050565b5f80fd5b5f73ffffffffffffffffffffffffffffffffffffffff82169050919050565b5f620001948262000169565b9050919050565b620001a68162000188565b8114620001b1575f80fd5b50565b5f81519050620001c4816200019b565b92915050565b5f60208284031215620001e257620001e162000165565b5b5f620001f184828501620001b4565b91505092915050565b61134d80620002085f395ff3fe608060405234801561000f575f80fd5b50600436106100e8575f3560e01c8063715018a61161008a578063a98ad46c11610064578063a98ad46c14610222578063d015ed6a14610240578063d1058e591461025c578063f2fde38b14610266576100e8565b8063715018a6146101ca5780638b099b23146101d45780638da5cb5b14610204576100e8565b80634b7dd8e6116100c65780634b7dd8e6146101425780635f5152261461016057806362c35c01146101905780636f9fb98a146101ac576100e8565b806332a2c5d0146100ec578063379607f51461010a5780633ea521ef14610126575b5f80fd5b6100f4610282565b6040516101019190610dcf565b60405180910390f35b610124600480360381019061011f9190610e1f565b610289565b005b610140600480360381019061013b9190610e1f565b610367565b005b61014a61049b565b6040516101579190610dcf565b60405180910390f35b61017a60048036038101906101759190610e74565b6104c3565b6040516101879190610eae565b60405180910390f35b6101aa60048036038101906101a59190610e1f565b610564565b005b6101b461076d565b6040516101c19190610eae565b60405180910390f35b6101d261080c565b005b6101ee60048036038101906101e99190610ec7565b61081f565b6040516101fb9190610eae565b60405180910390f35b61020c6108c3565b6040516102199190610dcf565b60405180910390f35b61022a6108ea565b6040516102379190610f60565b60405180910390f35b61025a60048036038101906102559190610f79565b61090f565b005b610264610a53565b005b610280600480360381019061027b9190610e74565b610bc8565b005b5f30905090565b60015f9054906101000a900473ffffffffffffffffffffffffffffffffffffffff1673ffffffffffffffffffffffffffffffffffffffff1663a9059cbb30836040518363ffffffff1660e01b81526004016102e5929190610fb7565b6020604051808303815f875af1158015610301573d5f803e3d5ffd5b505050506040513d601f19601f820116820180604052508101906103259190611013565b610364576040517f08c379a000000000000000000000000000000000000000000000000000000000815260040161035b90611098565b60405180910390fd5b50565b61036f610c4a565b60015f9054906101000a900473ffffffffffffffffffffffffffffffffffffffff1673ffffffffffffffffffffffffffffffffffffffff1663a9059cbb33836040518363ffffffff1660e01b81526004016103cb929190610fb7565b6020604051808303815f875af11580156103e7573d5f803e3d5ffd5b505050506040513d601f19601f8201168201806040525081019061040b9190611013565b61044a576040517f08c379a000000000000000000000000000000000000000000000000000000000815260040161044190611100565b60405180910390fd5b3373ffffffffffffffffffffffffffffffffffffffff167f84e742a3ea03623687a5febaa797636d728230721d4b3d1405d19fbbc16298d9826040516104909190610eae565b60405180910390a250565b5f60015f9054906101000a900473ffffffffffffffffffffffffffffffffffffffff16905090565b5f60015f9054906101000a900473ffffffffffffffffffffffffffffffffffffffff1673ffffffffffffffffffffffffffffffffffffffff166370a08231836040518263ffffffff1660e01b815260040161051e9190610dcf565b602060405180830381865afa158015610539573d5f803e3d5ffd5b505050506040513d601f19601f8201168201806040525081019061055d9190611132565b9050919050565b60015f9054906101000a900473ffffffffffffffffffffffffffffffffffffffff1673ffffffffffffffffffffffffffffffffffffffff1663095ea7b330836040518363ffffffff1660e01b81526004016105c0929190610fb7565b6020604051808303815f875af11580156105dc573d5f803e3d5ffd5b505050506040513d601f19601f820116820180604052508101906106009190611013565b61063f576040517f08c379a0000000000000000000000000000000000000000000000000000000008152600401610636906111a7565b60405180910390fd5b60015f9054906101000a900473ffffffffffffffffffffffffffffffffffffffff1673ffffffffffffffffffffffffffffffffffffffff166323b872dd3330846040518463ffffffff1660e01b815260040161069d939291906111c5565b6020604051808303815f875af11580156106b9573d5f803e3d5ffd5b505050506040513d601f19601f820116820180604052508101906106dd9190611013565b61071c576040517f08c379a000000000000000000000000000000000000000000000000000000000815260040161071390611098565b60405180910390fd5b3373ffffffffffffffffffffffffffffffffffffffff167f51c52de2bb698de2bdcd26d7e1c47d6eec1c8348253da8afd9c62ed9a3dd1429826040516107629190610eae565b60405180910390a250565b5f60015f9054906101000a900473ffffffffffffffffffffffffffffffffffffffff1673ffffffffffffffffffffffffffffffffffffffff166370a08231306040518263ffffffff1660e01b81526004016107c89190610dcf565b602060405180830381865afa1580156107e3573d5f803e3d5ffd5b505050506040513d601f19601f820116820180604052508101906108079190611132565b905090565b610814610c4a565b61081d5f610cc8565b565b5f60015f9054906101000a900473ffffffffffffffffffffffffffffffffffffffff1673ffffffffffffffffffffffffffffffffffffffff1663dd62ed3e84846040518363ffffffff1660e01b815260040161087c9291906111fa565b602060405180830381865afa158015610897573d5f803e3d5ffd5b505050506040513d601f19601f820116820180604052508101906108bb9190611132565b905092915050565b5f805f9054906101000a900473ffffffffffffffffffffffffffffffffffffffff16905090565b60015f9054906101000a900473ffffffffffffffffffffffffffffffffffffffff1681565b60015f9054906101000a900473ffffffffffffffffffffffffffffffffffffffff1673ffffffffffffffffffffffffffffffffffffffff1663a9059cbb83836040518363ffffffff1660e01b815260040161096b929190610fb7565b6020604051808303815f875af1158015610987573d5f803e3d5ffd5b505050506040513d601f19601f820116820180604052508101906109ab9190611013565b6109ea576040517f08c379a00000000000000000000000000000000000000000000000000000000081526004016109e190611098565b60405180910390fd5b8173ffffffffffffffffffffffffffffffffffffffff163373ffffffffffffffffffffffffffffffffffffffff167fd6d3eb25a413c05d8107fc49deb2789bef7f612582b2482804c0b0423b6638ee83604051610a479190610eae565b60405180910390a35050565b60015f9054906101000a900473ffffffffffffffffffffffffffffffffffffffff1673ffffffffffffffffffffffffffffffffffffffff1663a9059cbb3060015f9054906101000a900473ffffffffffffffffffffffffffffffffffffffff1673ffffffffffffffffffffffffffffffffffffffff166370a08231336040518263ffffffff1660e01b8152600401610aeb9190610dcf565b602060405180830381865afa158015610b06573d5f803e3d5ffd5b505050506040513d601f19601f82011682018060405250810190610b2a9190611132565b6040518363ffffffff1660e01b8152600401610b47929190610fb7565b6020604051808303815f875af1158015610b63573d5f803e3d5ffd5b505050506040513d601f19601f82011682018060405250810190610b879190611013565b610bc6576040517f08c379a0000000000000000000000000000000000000000000000000000000008152600401610bbd90611098565b60405180910390fd5b565b610bd0610c4a565b5f73ffffffffffffffffffffffffffffffffffffffff168173ffffffffffffffffffffffffffffffffffffffff1603610c3e576040517f08c379a0000000000000000000000000000000000000000000000000000000008152600401610c3590611291565b60405180910390fd5b610c4781610cc8565b50565b610c52610d89565b73ffffffffffffffffffffffffffffffffffffffff16610c706108c3565b73ffffffffffffffffffffffffffffffffffffffff1614610cc6576040517f08c379a0000000000000000000000000000000000000000000000000000000008152600401610cbd906112f9565b60405180910390fd5b565b5f805f9054906101000a900473ffffffffffffffffffffffffffffffffffffffff169050815f806101000a81548173ffffffffffffffffffffffffffffffffffffffff021916908373ffffffffffffffffffffffffffffffffffffffff1602179055508173ffffffffffffffffffffffffffffffffffffffff168173ffffffffffffffffffffffffffffffffffffffff167f8be0079c531659141344cd1fd0a4f28419497f9722a3daafe3b4186f6b6457e060405160405180910390a35050565b5f33905090565b5f73ffffffffffffffffffffffffffffffffffffffff82169050919050565b5f610db982610d90565b9050919050565b610dc981610daf565b82525050565b5f602082019050610de25f830184610dc0565b92915050565b5f80fd5b5f819050919050565b610dfe81610dec565b8114610e08575f80fd5b50565b5f81359050610e1981610df5565b92915050565b5f60208284031215610e3457610e33610de8565b5b5f610e4184828501610e0b565b91505092915050565b610e5381610daf565b8114610e5d575f80fd5b50565b5f81359050610e6e81610e4a565b92915050565b5f60208284031215610e8957610e88610de8565b5b5f610e9684828501610e60565b91505092915050565b610ea881610dec565b82525050565b5f602082019050610ec15f830184610e9f565b92915050565b5f8060408385031215610edd57610edc610de8565b5b5f610eea85828601610e60565b9250506020610efb85828601610e60565b9150509250929050565b5f819050919050565b5f610f28610f23610f1e84610d90565b610f05565b610d90565b9050919050565b5f610f3982610f0e565b9050919050565b5f610f4a82610f2f565b9050919050565b610f5a81610f40565b82525050565b5f602082019050610f735f830184610f51565b92915050565b5f8060408385031215610f8f57610f8e610de8565b5b5f610f9c85828601610e60565b9250506020610fad85828601610e0b565b9150509250929050565b5f604082019050610fca5f830185610dc0565b610fd76020830184610e9f565b9392505050565b5f8115159050919050565b610ff281610fde565b8114610ffc575f80fd5b50565b5f8151905061100d81610fe9565b92915050565b5f6020828403121561102857611027610de8565b5b5f61103584828501610fff565b91505092915050565b5f82825260208201905092915050565b7f5472616e73666572206661696c656400000000000000000000000000000000005f82015250565b5f611082600f8361103e565b915061108d8261104e565b602082019050919050565b5f6020820190508181035f8301526110af81611076565b9050919050565b7f5769746864726177616c206661696c65640000000000000000000000000000005f82015250565b5f6110ea60118361103e565b91506110f5826110b6565b602082019050919050565b5f6020820190508181035f830152611117816110de565b9050919050565b5f8151905061112c81610df5565b92915050565b5f6020828403121561114757611146610de8565b5b5f6111548482850161111e565b91505092915050565b7f417070726f76616c206661696c656400000000000000000000000000000000005f82015250565b5f611191600f8361103e565b915061119c8261115d565b602082019050919050565b5f6020820190508181035f8301526111be81611185565b9050919050565b5f6060820190506111d85f830186610dc0565b6111e56020830185610dc0565b6111f26040830184610e9f565b949350505050565b5f60408201905061120d5f830185610dc0565b61121a6020830184610dc0565b9392505050565b7f4f776e61626c653a206e6577206f776e657220697320746865207a65726f20615f8201527f6464726573730000000000000000000000000000000000000000000000000000602082015250565b5f61127b60268361103e565b915061128682611221565b604082019050919050565b5f6020820190508181035f8301526112a88161126f565b9050919050565b7f4f776e61626c653a2063616c6c6572206973206e6f7420746865206f776e65725f82015250565b5f6112e360208361103e565b91506112ee826112af565b602082019050919050565b5f6020820190508181035f830152611310816112d7565b905091905056fea26469706673582212206c5286a16898bde8dd90dd6fdc77ac10dc5b38b71d852fb6235b7001ca02c42864736f6c63430008140033",
  "devdoc": {
    "kind": "dev",
    "methods": {
      "owner()": {
        "details": "Returns the address of the current owner."
      },
      "renounceOwnership()": {
        "details": "Leaves the contract without owner. It will not be possible to call `onlyOwner` functions anymore. Can only be called by the current owner. NOTE: Renouncing ownership will leave the contract without an owner, thereby removing any functionality that is only available to the owner."
      },
      "transferOwnership(address)": {
        "details": "Transfers ownership of the contract to a new account (`newOwner`). Can only be called by the current owner."
      }
    },
    "version": 1
  },
  "userdoc": {
    "kind": "user",
    "methods": {},
    "version": 1
  },
  "storageLayout": {
    "storage": [
      {
        "astId": 7,
        "contract": "contracts/donate.sol:SecondUsdtTransfer",
        "label": "_owner",
        "offset": 0,
        "slot": "0",
        "type": "t_address"
      },
      {
        "astId": 221,
        "contract": "contracts/donate.sol:SecondUsdtTransfer",
        "label": "usdtToken",
        "offset": 0,
        "slot": "1",
        "type": "t_contract(IERC20)190"
      }
    ],
    "types": {
      "t_address": {
        "encoding": "inplace",
        "label": "address",
        "numberOfBytes": "20"
      },
      "t_contract(IERC20)190": {
        "encoding": "inplace",
        "label": "contract IERC20",
        "numberOfBytes": "20"
      }
    }
  }
}